:020000020000FC
:0200000024C01A
:10004800B1C00FEF07B904B908B905B90EEF0AB97D
:1000580080E090E000E0E02E21D108E90093C100A3
:1000680007E60093C400789400E1A0E0B1E0ECE971
:10007800F1E015901D920A95E1F708E20BB900E24C
:100088000BB9FED040E0C7D044E0C5D048E0C3D0AB
:100098004CE0C1D00FEF07B904B908B905B900EFB2
:1000A80007B90FEF04B90FE008B90000000000E03D
:1000B80005B900000000000006B10F30E9F300FFA9
:1000C80051C001FF52C002FF53C003FF54C00FEFDD
:1000D80007B904B908B905B90FEF07B900EF04B9B2
:1000E80000E008B9000000000FE005B900000000BA
:1000F800000003B100FF42C001FF43C002FF44C03B
:1001080003FF45C00EE0F01629F10FE0F016B1F03C
:1001180001E0E01629F002E0E01621F000E303C058
:1001280001E401C00FE4F00E5F2D5093C60084FD7A
:100138009ED082D0B3D0B2D08395ACCFE39403E005
:10014800E01619F0ABD0AAD0A5CF00E0E02EA6D0DB
:10015800A5D0A0CF5F2D5093C600A0D09FD04CE073
:100168005AD098CF00E0F02EB2CF04E0F02EAFCFF7
:1001780008E0F02EACCF0CE0F02EA9CF00E0F00E96
:10018800C1CF01E0F00EBECF02E0F00EBBCF03E01E
:10019800F00EB8CF282088800800E8E008006860E2
:1001A800080018105091C60001E3501741F002E30F
:1001B800501701F184FD5BD03FD083952BC04CE0F4
:1001C8002AD052E439D059E437D055E435D05EE42A
:1001D80033D056E531D055E42FD05EE42DD059E424
:1001E8002BD054E429D05FE427D00FEF04B900E105
:1001F80005B910C04CE00FD055E41ED052E51CD014
:1002080052E51AD05FE418D052E516D00FEF04B9C2
:1002180000E205B91895A42F0C910BB94395A42FAA
:100228000C910BB94395A42F0C910BB94395A42FAE
:100238000C910BB925D00895652F6F70052F061BFB
:10024800702F6CE0060F0BB9072F64E0060F0BB98F
:10025800052F000F000F000F000F702F6CE0060F26
:100268000BB9072F64E0060F0BB90AD0089598312F
:1002780021F050E2E1DF9395FACF80E090E0089515
:1002880010E528EC0000000000000000000000005D
:1002980000002A95B9F71A95A1F7089514E028ECFB
:1002A80038EC000000000000000000000000000022
:0E02B8003A95B9F72A95A1F71A9589F7089596
:00000001FF
